:040000000BEF00F012
:100008005282FACF44F0FBCF45F0D8ED08F002EF6A
:020018000BF0EB
:10080000006964310000000E00016B6F000E6A6F1A
:1008100000016BBF0AD000016B5106E1040E00011C
:100820006A5DD8B0120001D012006AC060F06BC0DF
:1008300061F0000E0001636F0B0E626FE7EC0AF0CF
:10084000020E00016027000E00016123010E00016D
:100850006025D96E000E00016121DA6EDECF66F0F0
:10086000DDCF67F06AC060F06BC061F0000E000180
:10087000636F0B0E626FE7EC0AF0010E000160255A
:10088000D96E000E00016121DA6EDECF68F0DDCF97
:1008900069F00001665100016827000167510001FD
:1008A0006923000168512F5C000169513058D8A0BC
:1008B000DBD06AC060F06BC061F0000E0001636FB6
:1008C0000B0E626FE7EC0AF0040E00016027000EC9
:1008D00000016123010E00016025D96E000E0001A8
:1008E0006121DA6EDECF66F0DDCF67F06AC060F0BE
:1008F0006BC061F0000E0001636F0B0E626FE7ECDE
:100900000AF0010E00016025D96E000E0001612180
:10091000DA6EDECF68F0DDCF69F0000166510001CC
:1009200068270001675100016923000168512D5CAF
:10093000000169512E58D8A097D06AC060F06BC0F2
:1009400061F0000E0001636F0B0E626FE7EC0AF0BE
:10095000060E00016027000E00016123010E000158
:100960006025D96E000E00016121DA6EDECF66F0DF
:10097000DDCF67F06AC060F06BC061F0000E00016F
:10098000636F0B0E626FE7EC0AF0010E0001602549
:10099000D96E000E00016121DA6EDECF68F0DDCF86
:1009A00069F00001665100016827000167510001EC
:1009B0006923000168512F5C000169513058D8A0AB
:1009C00053D06AC060F06BC061F0000E0001636F2D
:1009D0000B0E626FE7EC0AF0080E00016027000EB4
:1009E00000016123010E00016025D96E000E000197
:1009F0006121DA6EDECF66F0DDCF67F06AC060F0AD
:100A00006BC061F0000E0001636F0B0E626FE7ECCC
:100A10000AF0010E00016025D96E000E000161216F
:100A2000DA6EDECF68F0DDCF69F0000166510001BB
:100A300068270001675100016923000168512D5C9E
:100A4000000169512E58D8A00FD0D89000016A3506
:100A5000D96E00016B35DA6E6C0ED926000EDA22E3
:100A6000010EDE6E000EDD6E00016A4B6B2B000185
:100A70006BBFDBD600016B5101E1D0D61200010E35
:100A80000001606F080E0001616F9BEC0AF038EC0A
:100A90000BF00001666F00016605D8A4F0D7310E97
:100AA00031EC0BF038EC0BF0376E38EC0BF0386EA5
:100AB00038EC0BF0396E38EC0BF03B6E38EC0BF089
:100AC0003A6E38EC0BF00001656F00016551316E34
:100AD000326A38EC0BF0326E316A38EC0BF0000100
:100AE000656F000165512F6E306A38EC0BF0306E87
:100AF0002F6A38EC0BF00001656F000165512D6E17
:100B00002E6A38EC0BF02E6E2D6A38EC0BF00001DB
:100B1000656F00016551356E366A38EC0BF0366E44
:100B2000356A38EC0BF00001656F00016551336EDA
:100B3000346A38EC0BF0346E336A310E31EC0BF062
:100B400001C060F002C061F09BEC0AF003C060F0ED
:100B500004C061F09BEC0AF005C060F006C061F0D3
:100B60009BEC0AF007C060F008C061F09BEC0AF053
:100B700009C060F00AC061F09BEC0AF00B5031EC48
:100B80000BF00CC060F00DC061F09BEC0AF00EC0E1
:100B900060F00FC061F09BEC0AF010C060F011C073
:100BA00061F09BEC0AF012C060F013C061F09BECA6
:100BB0000AF014C060F015C061F09BEC0AF016500A
:100BC00031EC0BF017C060F018C061F09BEC0AF03C
:100BD00019C060F01AC061F09BEC0AF01BC060F015
:100BE0001CC061F09BEC0AF01DC060F01EC061F0FB
:100BF0009BEC0AF01FC060F020C061F09BEC0AF093
:100C0000215031EC0BF022C060F023C061F09BEC6E
:100C10000AF024C060F025C061F09BEC0AF026C009
:100C200060F027C061F09BEC0AF028C060F029C09A
:100C300061F09BEC0AF02AC060F02BC061F09BECE5
:100C40000AF02C5031EC0BF038EC0BF00001666F21
:100C500000016605D8B4F8D7000E0001616F000EE0
:100C6000606FA6EC09F0000E0001616F010E606F6D
:100C7000A6EC09F0000E0001616F020E606FA6EC99
:100C800009F0000E0001616F030E606FA6EC09F021
:100C9000000E0001616F010E606FC6EC0AF0000EDD
:100CA0000001616F000E606FA6EC09F0000E0001FC
:100CB000616F010E606FA6EC09F0000E0001616F1C
:100CC000020E606FA6EC09F0000E0001616F030ECA
:100CD000606FA6EC09F01200000E0001616F000EBB
:100CE000606FA6EC09F0000E0001616F010E606FED
:100CF000A6EC09F0000E0001616F020E606FA6EC19
:100D000009F0000E0001616F030E606FA6EC09F0A0
:100D1000000E0001616F000E606F6DEC09F0000EB7
:100D20000001616F010E606F6DEC09F0000E0001B3
:100D3000616F020E606F6DEC09F0000E0001616FD3
:100D4000030E606F6DEC09F039C060F00001616B5B
:100D5000C6EC0AF0000E0001616F000E606F6DECD2
:100D600009F0000E0001616F010E606F6DEC09F07B
:100D7000000E0001616F020E606F6DEC09F0000E55
:100D80000001616F030E606F6DEC09F0000E000151
:100D9000616F000E606F6EEC0AF060C007F061C01A
:100DA00008F0000E0001616F010E606F6EEC0AF03A
:100DB00060C012F061C013F0000E0001616F020EFE
:100DC000606F6EEC0AF060C01DF061C01EF0000E96
:100DD0000001616F030E606F6EEC0AF060C028F0D6
:100DE00061C029F0000E0001616F190E606FC6EC42
:100DF0000AF0000E0001616F000E606F6EEC0AF0E9
:100E000060C009F061C00AF0000E0001616F010EC0
:100E1000606F6EEC0AF060C014F061C015F0000E57
:100E20000001616F020E606F6EEC0AF060C01FF08F
:100E300061C020F0000E0001616F030E606F6EEC68
:100E40000AF060C02AF061C02BF0000E0001616F53
:100E5000000E606FA6EC09F0000E0001616F010E3C
:100E6000606FA6EC09F0000E0001616F020E606F6A
:100E7000A6EC09F0000E0001616F030E606FA6EC96
:100E800009F01200000E0001616F000E606FA6EC09
:100E900009F0000E0001616F010E606FA6EC09F011
:100EA000000E0001616F020E606FA6EC09F0000EEB
:100EB0000001616F030E606FA6EC09F0000E0001E7
:100EC000616F000E606F6DEC09F0000E0001616F44
:100ED000010E606F6DEC09F0000E0001616F020EF3
:100EE000606F6DEC09F0000E0001616F030E606F22
:100EF0006DEC09F038C060F00001616BC6EC0AF0DF
:100F0000000E0001616F000E606F6DEC09F0000EC5
:100F10000001616F010E606F6DEC09F0000E0001C1
:100F2000616F020E606F6DEC09F0000E0001616FE1
:100F3000030E606F6DEC09F0000E0001616F000E92
:100F4000606F6EEC0AF060C003F061C004F0000E48
:100F50000001616F010E606F6EEC0AF060C00EF070
:100F600061C00FF0000E0001616F020E606F6EEC49
:100F70000AF060C019F061C01AF0000E0001616F44
:100F8000030E606F6EEC0AF060C024F061C025F0C3
:100F9000000E0001616F190E606FC6EC0AF0000EC2
:100FA0000001616F000E606F6EEC0AF060C005F02A
:100FB00061C006F0000E0001616F010E606F6EEC03
:100FC0000AF060C010F061C011F0000E0001616F06
:100FD000020E606F6EEC0AF060C01BF061C01CF086
:100FE000000E0001616F030E606F6EEC0AF060C0CE
:100FF00026F061C027F0000E0001616F000E606FE7
:10100000A6EC09F0000E0001616F010E606FA6EC06
:1010100009F0000E0001616F020E606FA6EC09F08E
:10102000000E0001616F030E606FA6EC09F0120064
:10103000000E0001686F000E676F000168BF08D0E6
:101040000001685124E1040E0001675DD8B01FD093
:10105000D89000016735D96E00016835DA6E6C0EE4
:10106000D926000EDA22DE04DE10D8A40CD067C028
:1010700060F068C061F02FEC09F067C060F068C0F4
:1010800061F06DEC09F00001674B682BD6D7000EBC
:101090000001616F010E606FC6EC0AF0000E0001E6
:1010A000686F000E676F000168BF08D000016851CB
:1010B0001EE1040E0001675DD8B01200D890000157
:1010C0006735D96E00016835DA6E6C0ED926000ED0
:1010D000DA22DE04DE10D8A406D067C060F068C053
:1010E00061F06DEC09F00001674B682BDCD7120052
:1010F000000E0001686F000E676F000168BF08D026
:101100000001685124E1040E0001675DD8B01FD0D2
:10111000D89000016735D96E00016835DA6E6C0E23
:10112000D926000EDA22DE50DE10D8A40CD067C01B
:1011300060F068C061F02FEC09F067C060F068C033
:1011400061F06DEC09F00001674B682BD6D7000EFB
:101150000001616F010E606FC6EC0AF0000E000125
:10116000686F000E676F000168BF08D0000168510A
:101170001EE1040E0001675DD8B01200D890000196
:101180006735D96E00016835DA6E6C0ED926000E0F
:10119000DA22DE50DE10D8A406D067C060F068C046
:1011A00061F06DEC09F00001674B682BDCD7120091
:1011B0000600E9CF46F0EACF47F0E1CF48F0E2CFB2
:1011C00049F0D9CF4AF0DACF4BF0F3CF4CF0F4CF5F
:1011D0004DF0F6CF4EF0F7CF4FF0F8CF50F0F5CFFF
:1011E00051F0F2A01ED081A406D0000E416E000E78
:1011F000406E13EC0AF08150000E416E010E406EFD
:1012000013EC0AF08150000E416E020E406E13EC9A
:101210000AF08150000E416E030E406E13EC0AF08E
:10122000F29051C0F5FF50C0F8FF4FC0F7FF4EC01D
:10123000F6FF4DC0F4FF4CC0F3FF4BC0DAFF4AC0CD
:10124000D9FF49C0E2FF48C0E1FF47C0EAFF46C0FE
:10125000E9FF45C0FBFF44C0FAFF52921100040EA3
:1012600000016027000E612360C062F0010E0001E2
:10127000636F0001622B03D00001D8906337000137
:10128000622FFAD7000163518C140009D8A412D040
:1012900060C062F0010E0001636F0001622B03D099
:1012A0000001D89063370001622FFAD70001635123
:1012B0008C12120060C062F0010E0001636F000129
:1012C000622B03D00001D89063370001622FFAD758
:1012D00000016351FF0A8C16120060C062F0010E1B
:1012E0000001636F0001622B03D00001D8906337C7
:1012F0000001622FFAD7000163518B140009D8A4B2
:1013000012D060C062F0010E0001636F0001622B19
:1013100003D00001D89063370001622FFAD7000193
:1013200063518B12120060C062F0010E0001636F06
:101330000001622B03D00001D89063370001622FB7
:10134000FAD700016351FF0A8B16120060C062F0E9
:10135000010E0001636F0001622B03D00001D890E1
:1013600063370001622FFAD7000163518C14000922
:10137000D8A412D060C062F0010E0001636F0001BA
:10138000622B03D00001D89063370001622FFAD797
:10139000000163518C12120060C062F0010E000166
:1013A000636F0001622B03D00001D8906337000106
:1013B000622FFAD700016351FF0A8C16120029EC44
:1013C0000BF03FEC0BF046EC0BF015EC0BF080BA99
:1013D000FED73FEC05F041EC0AF08C50F00BF00A20
:1013E000D8B4FBD742EC07F0000E0001616F190E74
:1013F000606FC6EC0AF06CEC06F003EC04F080BA07
:10140000FED73BC060F00001616BC6EC0AF078ECDF
:1014100008F03AC060F00001616BC6EC0AF018EC0D
:1014200008F0D5D7FFD7040E4026000E412240C059
:1014300042F0010E436E422A02D0D8904336422E2B
:10144000FCD743508C140009D8A40DD040C042F002
:10145000010E436E422A02D0D8904336422EFCD76A
:1014600043508C12120040C042F0010E436E422ADB
:1014700002D0D8904336422EFCD74350FF0A8C1638
:101480001200000E0001616F000E606F6EEC0AF03A
:1014900060C001F061C002F0000E0001616F010E3A
:1014A000606F6EEC0AF060C00CF061C00DF0000ED1
:1014B0000001616F020E606F6EEC0AF060C017F001
:1014C00061C018F0000E0001616F030E606F6EECDA
:1014D0000AF060C022F061C023F01200000EC26E5C
:1014E00000016045E846FC0BC212C280C282C2B253
:1014F000FED7C4CF66F00001676B66C062F067C0BC
:1015000063F0070ED890000162376337E82EFAD7F0
:10151000C3500001646F656B0001625100016411EA
:101520003E6E00016351000165113F6E3EC060F0E8
:101530003FC061F0120016D09EA8FED760C0F6FF33
:1015400061C0F7FFF86A070EF76403D00800F55092
:1015500005D0F6CFE9FFF7CFEAFFEF50AD6E0001FF
:10156000604B612B60C0F6FF61C0F7FFF86A070EA1
:10157000F76403D00800F55005D0F6CFE9FFF7CFA8
:10158000EAFFEF500009D8B41200D6D7000E0001D0
:10159000646F000E636F000E0001646F000E636FD6
:1015A00003D00001634B642B000160510001635DB7
:1015B00000016451800A0001626F00016151800ADC
:1015C00000016259D8A0EDD71FEC0BF0120000010A
:1015D000605100016203F3CF64F0F4CF65F00001C5
:1015E000605100016303F350000165270001615160
:1015F00000016203F3500001652764C060F065C01C
:1016000061F0120000EE6CF0080EEE6AE806FDE1F3
:1016100000EE01F03F0EEE6AE806FDE152905292B4
:10162000000EF86E0001DFEF09F0949C948E330EEB
:10163000AF6E240EAC12900EAB6EB85012000B0EB3
:10164000D76EDB0ED66ED58EF2A4FED7F294D550AF
:101650001200F00E936E000E956EF00E946E928A4C
:1016600012000001606F9EA8FED760C0ADFF12009F
:101670009EAAFED7AECF60F0000160511200000EAE
:10168000C26E0A0EC16E990EC06E1200060ED56EA5
:02169000120046
:020000040020DA
:08000000FFFFFFFFFFFFFFFF00
:020000040030CA
:0E000000000C1F1EFF0080FF0FC00FE00F401E
:00000001FF
